:02000000962B3D
:100008007E1480312000911DB22924001108FB00C4
:10001800941A13282000AD012400141DFA01141DA0
:10002800941EAD2920002D08031D55297B08FA00D0
:1000380042307A06031D4828761D2F280C303D00D3
:1000480090000D309100FB30F605F830F505F515F8
:10005800FF3020006E28F61C3B280730F704F730E5
:10006800F705F030A805FF30AA00F9016F28761CC3
:100078004028F030F7057128A71F46280930F504F5
:10008800F9306A2876146D2843307A06031D7328E0
:10009800761D5A280C303D0090000D309100FB3041
:1000A800F605F930F5050930F5042C28761C632887
:1000B8000730F704F730F705A815F8303628F61892
:1000C8003D28A71F6C280A30F504FA30F5056F287B
:1000D800F614FF30A700C830A5007014AB294530CE
:1000E8007A06031D9F28761F862802303D0094005B
:1000F80003309500BF30F6058F30F505F517FF3052
:100108002000C528F61E92287030F7047F30F705C6
:100118000F30A805FF30A900F801C628761E9728D9
:100128000F30F705C828A61F9D289030F5049F308A
:10013800C1287616C42846307A06031DCA28761FB9
:10014800B12802303D00940003309500BF30F60519
:100158009F30F5059030F5048328761EBA28703054
:10016800F7047F30F705A8178F308D28F61A9428E2
:10017800A61FC328A030F504AF30F505C628F6162B
:10018800FF30A600C830A400F016AB2947307A0625
:10019800031DF2287619AB29760803390319DF28DD
:1001A8000730F704F730F705FB30A8052815FF30AE
:1001B800AA00F901E528A71FE8280A30F504FA3053
:1001C800F505A501F0300F29761575153D0090014C
:1001D80091017714FF302000A700E52848307A06FF
:1001E800031D1B29761BAB2976083039031907290B
:1001F8007030F7047F30F705BF30A8052817FF30A7
:10020800A900F8010D29A61F1129A030F504AF3067
:10021800F505A4010F30F005AB29761775173D00D9
:10022800940195017716FF302000A6000D2949306A
:100238007A06031D3829250092019601F401F3017D
:100248000C303D0090000D309100F030F605200094
:10025800A201A301F901AC01AA01F030F705F030C1
:10026800A805F030F505EE284A307A06031DAB29BB
:100278002C0098019B01F201F10102303D0094002D
:10028800033095000F30F6052000A001A101F80108
:10029800AB01A9010F30F7050F30A8050F30F505A0
:1002A800172941307A06031D7D29771C5E297B08B2
:1002B800AC00AB297B08F900761C65297B08740221
:1002C8006929F61CAB297B08730203187129F715F5
:1002D800F830F705FF30AA00AB29F430F705FF30F6
:1002E800AA007B08031D7B290630F704E52877154B
:1002F800AB2944307A06031DA529771E86297B0879
:10030800AB00AB297B08F800761E8D297B087202AA
:100318009129F61EAB297B08710203189929F71752
:100328008F30F705FF30A900AB294F30F705FF30B4
:10033800A9007B08031DA3296030F7040D2977174E
:10034800AB2958307A06031DAB297B08AF00013072
:10035800AD072400151620009111942B911C942BA5
:10036800A71FB9290130A707D829F51DD829771C57
:10037800C3292C08F900AC01FE30F705F715F51C68
:10038800CE29F430F50575153D00900191017615DB
:100398007714D529751CD229F614D3297614F03090
:1003A800F505FF302000A70075199E2AAA1F712A9B
:1003B800761C1B2A7408FC00FD017C08A2007D083D
:1003C800A300F71D052A790874020318EF290530E0
:1003D800A2070030A33D2308803AFC0080307C024D
:1003E800031DF82979082202031CFF297908F40063
:1003F800F730F705732A20002208F400FF30AA001E
:10040800732A771D732A7408790203180F2AFB30A0
:10041800A207FF30A33D2308803A803C031D162A1B
:1004280022087902031CFF297908F400532A73086B
:10043800FC00FD017C08A2007D08A300F71D3E2AF0
:100448007908730203182C2A0530A2070030A33D4F
:100458002308803AFC0080307C02031D352A790885
:100468002202031C3A2A7908F300FC2920002208FA
:10047800F300022A771D732A730879020318482AA1
:10048800FB30A207FF30A33D2308803A803C031DC0
:100498004F2A22087902031C3A2A7908F300FB3014
:1004A800F705F71C732AFC30F605FF302000A7007B
:1004B800FD30F705771C732A281D662A0A30F504D3
:1004C800FA306F2AA81D6C2A0D30F504FD306F2A0A
:1004D8000C30F504FC30F505732A0130AA07701CAE
:1004E800992A771C7A2AFD30F0057E2AF01CF71D20
:1004F8007E2AF014F01C992A200025080319972A4F
:10050800761C8C2A2F082500920073089600932ADF
:10051800F61C932A2F0825009600740892000130D3
:100528002000A5029E2AFC30F005740825009200E0
:10053800730896002000A61FA42A0130A607C32A24
:10054800F51FC32A771EAE2A2B08F800AB01EF303F
:10055800F705F717F51EB92A4F30F50575173D0051
:100568009401950176177716C02A751EBD2AF616CE
:10057800BE2A76160F30F505FF302000A600751B41
:10058800922BA91F5F2B761E072B7208FC00FD011A
:100598007C08A0007D08A100F71FF12A78087202E4
:1005A8000318DA2A0530A0070030A13D2108803A57
:1005B800FC0080307C02031DE32A78082002031C1B
:1005C800EA2A7808F2007F30F705612B200020081E
:1005D800F200FF302000A900612B771F612B720801
:1005E80078020318FB2AFB30A007FF30A13D210841
:1005F800803A803C031D022B20087802031CEA2A5B
:100608007808F200412B7108FC00FD017C08A0006D
:100618007D08A100F71F2C2B780871020318182BEE
:100628000530A0070030A13D2108803AFC00803049
:100638007C02031D212B78082002031C282B780834
:10064800F1007F30F705ED2A20002008F100ED2A9F
:10065800771F612B710878020318362BFB30A0072F
:10066800FF30A13D2108803A803C031D3D2B200826
:100678007802031C282B7808F100BF30F705F71E15
:10068800612BCF30F605FF302000A600DF30F705DC
:10069800771E612B281F542BA030F504AF305D2B3B
:1006A800A81F5A2BD030F504DF305D2BC030F5047D
:1006B800CF30F505612B0130A907F01E8D2B771E71
:1006C800682BFD30F0056C2BF01EF71F6C2BF01615
:1006D800F01E882B200024080319852B761E7A2B00
:1006E8002F082C00980071089B00812BF61E812B87
:1006F8002F082C009B007208980001302000A402EB
:10070800922B0F30F0058D2B74082C00980073087D
:10071800912B72082C00980071089B002000911002
:100728007E100900972BEF23AF0070308400003053
:1007380085000C30E92320308400003085000F301C
:10074800E9237E102000A82B0C3021008C00230008
:100758008C01333022008C0019303D0092000230A9
:100768003C00A1000330A0000C303D0090000D308B
:1007780091000230940003309500C0308B000A309D
:1007880021009100803024009400363095009601B5
:100798009701FE309300123092001E3020009F0017
:1007A800FF309E0080302C0099009801970180301E
:1007B8009C009B019A019F302500930092019101B2
:1007C8009F30970096019501E82B64008001013164
:0807D800890BEA2B0034803488
:020000040001F9
:08000E008C17303FFF1FFF3F7C
:00000001FF
